:200000000C94A6000C94CE000C94CE000C94CE000C94CE000C94CE000C94CE000C94CE0098
:200020000C94CE000C94CE000C94CE000C94CE000C94CE000C94CE000C94CE000C94CE0050
:200040000C94E5120C94CE000C9455130C942F130C94CE000C94CE000C94CE000C94CE00F9
:200060000C9487130C94CE0005A84CCDB2D44EB93836A9020C50B9918688083CA6AAAA2A50
:20008000BE000000803F00000000240027002A0000000000250028002B00000000002300D3
:2000A0002600290004040404040404040202020202020303030303030102040810204080B4
:2000C000010204081020010204081020000000080002010000030407000000000000000089
:2000E0000000010001000100010001000100020003000400050006000700070007000600CB
:2001000005000400030002000100010001000100010001000000FFFFFFFFFFFFFFFFFFFFD5
:20012000FFFFFEFFFDFFFCFFFBFFFAFFF9FFF9FFF9FFFAFFFBFFFCFFFDFFFEFFFFFFFFFF0F
:20014000FFFFFFFFFFFFFFFF0000A61411241FBECFEFD8E0DEBFCDBF11E0A0E0B1E0E8E171
:20016000FCE302C005900D92AE3BB107D9F723E0AEEBB1E001C01D92A133B207E1F710E047
:20018000C6EAD0E004C02197FE010E946C19C53AD107C9F70E94DF140C940A1E0C940000C9
:2001A00097FF05C064E370E00E941719C49664E370E00E941719FC01EE0FFF1FE052FF4F20
:2001C000859194910895833081F028F4813099F08230A9F008958730A9F08830C9F0843070
:2001E000B1F4809180008F7D03C0809180008F7780938000089584B58F7784BD089584B5DD
:200200008F7DFBCF8091B0008F778093B00008958091B0008F7DF9CFCF93DF93282F30E011
:20022000F901E453FF4F8491F901E854FF4FD491F901EC55FF4FC491CC23A1F081110E94AF
:20024000E300EC2FF0E0EE0FFF1FE656FF4FA591B491EC91ED2381E090E009F480E0DF9185
:20026000CF91089580E090E0FACF1F93CF93DF93282F30E0F901E453FF4F8491F901E85431
:20028000FF4FD491F901EC55FF4FC491CC23A9F0162F81110E94E300EC2FF0E0EE0FFF1FE3
:2002A000E057FF4FA591B4918FB7F894EC91111108C0D095DE23DC938FBFDF91CF911F9162
:2002C0000895DE2BF8CFCF93DF9390E0FC01E854FF4F24918C559F4FFC0184918823C9F0EC
:2002E00090E0880F991FFC01EA57FF4FA591B491FC01E057FF4FC591D49161110DC09FB766
:20030000F8948C91209582238C938881282328839FBFDF91CF910895623051F49FB7F89438
:200320003C91822F809583238C93E8812E2BEFCF8FB7F894EC912E2B2C938FBFEACF3FB781
:20034000F8948091800290918102A0918202B091830226B5A89B05C02F3F19F00196A11DB0
:20036000B11D3FBFBA2FA92F982F8827BC01CD01620F711D811D911D42E0660F771F881FD0
:20038000991F4A95D1F708958F929F92AF92BF92CF92DF92EF92FF924B015C010E949F01AE
:2003A0006B017C010E949F016C197D098E099F09683E734081059105A8F321E0821A910882
:2003C000A108B10888EEC80E83E0D81EE11CF11C81149104A104B10429F7FF90EF90DF90EB
:2003E000CF90BF90AF909F908F900895AF92BF92CF92DF92EF92FF920F931F93CF93DF9387
:200400006C017B018B01040F151FEB015E01AE18BF08C017D10759F06991D601ED91FC9174
:200420000190F081E02DC6010995892B79F7C501DF91CF911F910F91FF90EF90DF90CF9062
:20044000BF90AF900895FC01538D448D252F30E0842F90E0821B930B541710F0CF96089594
:2004600001970895FC01918D828D981761F0A28DAE0FBF2FB11D5D968C91928D9F5F9F7336
:20048000928F90E008958FEF9FEF0895FC01918D828D981731F0828DE80FF11D858D90E0F5
:2004A00008958FEF9FEF0895FC01918D228D892F90E0805C9F4F821B91098F7399270895A4
:2004C00084E892E00E94540221E0892B09F420E0822F089580E090E0892B29F00E946002A5
:2004E00081110C9400000895FC01A48DA80FB92FB11DA35ABF4F2C91848D90E001968F73B0
:200500009927848FA689B7892C93A089B1898C91837080648C93938D848D981306C0028838
:20052000F389E02D80818F7D80830895EF92FF920F931F93CF93DF93EC0181E0888F9B8DBE
:200540008C8D98131AC0E889F989808185FF15C09FB7F894EE89FF896083E889F9898081F8
:200560008370806480839FBF81E090E0DF91CF911F910F91FF90EF900895F62E0B8D10E0FB
:200580000F5F1F4F0F731127E02E8C8D8E110CC00FB607FCFACFE889F989808185FFF5CF66
:2005A000CE010E947402F1CFEB8DEC0FFD2FF11DE35AFF4FF0829FB7F8940B8FEA89FB8977
:2005C00080818062CFCFCF93DF93EC01888D8823B9F0AA89BB89E889F9898C9185FD03C0A4
:2005E000808186FD0DC00FB607FCF7CF8C9185FFF2CF808185FFEDCFCE010E947402E9CFDA
:20060000DF91CF91089520912D02260F3327331F21323105ECF420915302FC0190E080E070
:20062000243069F082E00895A0912D022191AC01455F5D4FA40FB52FB11D2C9301968617A7
:2006400098F380912D02680F60932D0280E0089581E008951092530281E0809355021092D7
:20066000540261E082E10E94350161E083E10E943501E9EBF0E080818E7F808380818D7F69
:20068000808388E48093B80085E48093BC000895CF93DF9391E090930A028823B9F0C09132
:2006A000B800D091BA008091BC008A7B8093BC0060E082E10E94350160E083E10E943501CF
:2006C0000E942A03D093BA00C093B800DF91CF910895089508950895E09102028091010256
:2006E000E81730F4F0E0EF51FE4F808190E008958FEF9FEF089590910202809101022FEF6C
:200700003FEF981748F4E92FF0E0EF51FE4F208130E09F5F90930202C901089580910102FA
:2007200090910202891B990B0895CF92DF92EF92FF920F931F93CF93DF937C01CB018A01CF
:200740002091E001222389F0EB016B01C40ED51ECC15DD0569F06991D701ED91FC910190A2
:20076000F081E02DC7010995F3CF642F0E940303C801DF91CF911F910F91FF90EF90DF9032
:20078000CF900895CF93DF931F92CDB7DEB769832091E0012223F9F020910302203258F0C3
:2007A00021E030E0FC013383228390E080E00F90DF91CF91089580910402E82FF0E0E054C2
:2007C000FE4F998190838F5F809304028093030281E090E0ECCF61E0CE0101960E940303A5
:2007E000F7CF90E080E00895CF92DF92EF92FF92CF93DF93EC01688D798D8A8D9B8D9B014B
:20080000AC010E949B1B6B017C0168A179A18AA19BA19B01AC010E9487199B01AC01C701C4
:20082000B6010E94FD190E946F1A6CAB7DAB8EAB9FABE881F9810084F185E02DCE01DF9133
:20084000CF91FF90EF90DF90CF900994CF93DF93FC012781222359F1EC0161E080850E94E2
:20086000630161E089850E9463018F81843011F08830B1F461E08A850E94630161E08B85F6
:200880000E9463018FA58F3F91F061E00E9463016EA581E068278FA5DF91CF910C943501AB
:2008A000833011F0863071F761E08A85E9CFDF91CF910895CF93DF93FC0127812223A9F09A
:2008C000EC010190F081E02D0284F385E02D60E009958FA58F3F49F061E00E9463016EA59E
:2008E0008FA5DF91CF910C943501DF91CF910895DC01ED91FC9122853385477055276627AA
:2009000077274150510961097109473051056105710560F4FA01E157FB4F0C946C1999042E
:200920009B049D049F04A104A304A50461E0F901099465E0FCCF64E0FACF66E0F8CF62E09B
:20094000F6CF6AE0F4CF68E0F2CF69E0F0CFCF93DF93EC01CB01BA0126E030E040E050E006
:200960000E944D19623071058105910589F16CF46115710581059105D1F06130710581051B
:200980009105F9F0DF91CF910895643071058105910561F124F1653071058105910591F72F
:2009A000E881F9810284F385E02D66E006C0E881F9810284F385E02D64E0CE01DF91CF916C
:2009C0000994E881F9810284F385E02D65E0F5CFE881F9810284F385E02D61E0EECFE8812E
:2009E000F9810284F385E02D63E0E7CFE881F9810284F385E02D62E0E0CFDC01ED91FC91B2
:200A00000284F385E02D4370552766277727423051056105710571F04330510561057105C7
:200A200059F0413051056105710511F065E0099466E0FDCF6AE0FBCF69E0F9CFCF93DF93DC
:200A4000EC01CB01BA0123E030E040E050E00E944D19613071058105910599F06230710503
:200A600081059105A9F0672B682B692BC1F4E881F9810284F385E02D64E0CE01DF91CF9182
:200A80000994E881F9810284F385E02D61E0F5CFE881F9810284F385E02D62E0EECFDF9169
:200AA000CF910895DC01ED91FC910284F385E02D4370552766277727423051056105710548
:200AC00071F0433051056105710559F0413051056105710511F062E0099463E0FDCF61E0F4
:200AE000FBCF60E0F9CFCF93DF93EC01E881F9810284F385E02D8A8160E0811162E0CE0187
:200B00000995E881F9810284F385E02D8A8161E0811163E0CE0109958CA59DA58230910500
:200B200038F0880F991F880F991F05970197F1F7E881F9810284F385E02D8A8160E0811108
:200B400062E0CE01DF91CF910994CF93DF93EC0120E030E0A901688D798D8A8D9B8D0E94C0
:200B6000961B18162CF4E8A9F9A9DF91CF910994EAA9FBA9FACFCF92DF92EF92FF920F9350
:200B80001F93CF93DF93DC011796CC91C43039F0C83059F1C33019F0C63049F1C2E08C012E
:200BA000085F1F4FF12CE12CC62ED12CD1E0F8016481C6010E2C02C0959587950A94E2F736
:200BC00080FD6D270F5F1F4F80810E943501BFEFEB1AFB0AEC1658F3DF91CF911F910F912A
:200BE000FF90EF90DF90CF900895C4E0D8CFC3E0D6CFDC011796EC911797E93008F038C02B
:200C0000F0E0EB5FF94F0C946C190E0614061A062006260638062C0638063206ED91FC91BC
:200C20000684F785E02D0994ED91FC910088F189E02DF9CFED91FC910288F389E02DF3CF42
:200C4000ED91FC910488F589E02DEDCFED91FC910688F789E02DE7CFED91FC91008CF18DC5
:200C6000E02DE1CFED91FC91028CF38DE02DDBCF08954F925F926F927F92AF92BF92CF9273
:200C8000DF92EF92FF920F931F93CF93DF93EC015A018B019A01AB01688D798D8A8D9B8D54
:200CA0000E94F319882379F14C8C5D8C6E8C7F8C73016201F7FAF094F7F8F094A7019601AD
:200CC000B501C8010E94F31987FD0CC0A3019201B501C8010E94961B73016201181614F085
:200CE0006501780120E030E0A901C701B6010E94F319811117C01B821C821D821E82C88EF5
:200D0000D98EEA8EFB8EDF91CF911F910F91FF90EF90DF90CF90BF90AF907F906F905F90E4
:200D20004F900895A701960160E074E284E799E40E94FD199F770E94761A6B837C838D837D
:200D40009E8311E020E030E0A901C701B6010E94961B18160CF010E01A83D1CF4F925F92CC
:200D60006F927F928F929F92AF92BF92CF92DF92EF92FF920F931F93CF93DF93EC01CC8830
:200D8000DD88EE88FF8888899989AA89BB89C81AD90AEA0AFB0A688D798D8A8D9B8D9B01B3
:200DA000AC010E949B1B4B015C0168A179A18AA19BA19B01AC010E9487199B01AC01C50161
:200DC000B4010E94FD190E946F1AC114D104E104F10409F0B6C062307105810591050CF068
:200DE000D0C01B821C821D821E82188E198E1A8E1B8E1CAA1DAA1EAA1FAAC12CD12C7601CC
:200E0000C701B601DF91CF911F910F91FF90EF90DF90CF90BF90AF909F908F907F906F906D
:200E20005F904F9008951016110612061306B4F46C157D058E059F051CF42A812111A1C0A9
:200E40009B01AC0188279927DC01821B930BA40BB50B8CAB9DABAEABBFAB93C00115110592
:200E60002105310509F48DC06C157D058E059F050CF087C08A81882309F483C030952095DF
:200E8000109501951F4F2F4F3F4F0CAB1DAB2EAB3FAB77C0011511052105310509F471C06E
:200EA0008824992454018C189D08AE08BF08681579058A059B050CF064C08A81811161C0A6
:200EC000DDCFCCACDDACEEACFFACA7019601C701B6010E9487192B013C01C501B4010E949A
:200EE000A71A20E030E040E850E40E949B1B20E030E040E85FE30E9487199B01AC01C301A4
:200F0000B2010E94FD199B01AC01C701B6010E9486193B016C01FE01E05CFF4FE080F1805A
:200F2000028113819701A8010E94961B181614F473018601C701D8018CAF9DAFAEAFBFAFE2
:200F40003AC00CA91DA92EA93FA91C141D041E041F040CF468CF10161106120613060CF026
:200F600099CF0027112798010C191D092E093F0960177107820793070CF062CF2A8121112B
:200F80005FCF8CA89DA8AEA8BFA881149104A104B10409F096CF88AD99ADAAADBBAD8CAF96
:200FA0009DAFAEAFBFAF81E01C141D041E041F040CF080E08A833FEF831A930AA30AB30AE8
:200FC0008CAA9DAAAEAABFAA8CAC9DACAEACBFACC501B4010E94761A6B017C01CB82DC824C
:200FE000ED82FE82A501940160E074E284E799E40E94FD19688F798F8A8F9B8F2A81211172
:20100000FFCE9058688F798F8A8F9B8FF9CECF92DF92EF92FF92CF93DF93FC0143815481C4
:2010200065817681452B462B472B41F480E0DF91CF91FF90EF90DF90CF900895EC010E9413
:201040009F016B017C0188A599A5AAA5BBA5B701A601481B590B6A0B7B0B8B819C81AD8175
:20106000BE81481759076A077B0700F388899989AA89BB892A812223C1F00196A11DB11D1E
:20108000888B998BAA8BBB8B488959896A897B89E881F9810484F585E02DCE010995C8A627
:2010A000D9A6EAA6FBA681E0C2CF0197A109B109E7CF0895CF92DF92EF92FF920F931F9307
:2010C000CF93DF93D62FFC01C08181E08093E001C093BF01109204021092030260E081E29F
:2010E00093E00E94C2036D2F81E293E00E94C203D0910302D13208F092C00E949F016B01DC
:201100007C0180915302811165C082E08093530281E0809355028FEF8093520210927702A0
:20112000D0937602A0ECB1E0E6E5F2E080E0D81385C01092780280917802CC0FC82BC093C2
:20114000780280915402813009F07CC0109254020E949F016B017C01809178028093BB004C
:201160008091060290910702A0910802B0910902892B8A2B8B2B99F00E949F010091060222
:201180001091070220910802309109026C197D098E099F090617170728073907E0F1809148
:2011A000BC0083FDD9CF85EC8093BC000E949F016B017C0180915302823009F445C08091B5
:2011C00052028F3F61F180915202803241F18091520225C08091060290910702A09108028A
:2011E000B0910902892B8A2B8B2B09F48ACF0E949F0100910602109107022091080230912D
:2012000009026C197D098E099F09061717072807390708F076CF809105020E9448031092EB
:201220000402109203021092E001DF91CF911F910F91FF90EF90DF90CF9008959D91919393
:201240008F5F75CF85EEB0CF8091060290910702A0910802B0910902892B8A2B8B2B09F484
:20126000A9CF0E949F01009106021091070220910802309109026C197D098E099F09061783
:2012800017072807390708F095CFC5CFFC01718360838091BE01811119C01092020210927A
:2012A000010210920402109203020E942A0389E693E090932C0280932B028AE693E0909394
:2012C000300280932F0281E08093BE010895DC0130E020E01296ED91FC911397848595855B
:2012E0002817390714F550E040E01296ED91FC91139764857585828593854817590794F470
:20130000269FC001279F900D369F900D1124ED91FC911197E40FF51FE80FF91F10824F5F34
:201320005F4FE3CF2F5F3F4FD5CF08952F923F924F925F926F927F928F929F92AF92BF9296
:20134000CF92DF92EF92FF920F931F93CF93DF93EC015B013A018A859B858A01081B190BFC
:20136000888599859B01281B390B6801C20ED31E021B130B8FEF9FEFD7FE02C081E090E046
:20138000EE24EA94FE2C101611061CF4EE24E394F12C28EE822E23E0922E889DB001899D1B
:2013A000700D989D700D1124072E000C880B990B0E94A71AAB01BC01888199810E94390681
:2013C000E89CB001E99C700DF89C700D1124072E000C880B990B0E94A71AAB01BC018A8141
:2013E0009B810E943906F12CE12C22243324201A310A442455244C185D08480117FD41016B
:20140000C601D7FCC2019401881699060CF49C01E216F306B4F4E816F90634F4888199811F
:201420000E9407088823D1F3E814F90434F48A819B810E9407088823D1F33FEFE31AF30AFC
:20144000DCCFB986A8867B866A8681E0DF91CF911F910F91FF90EF90DF90CF90BF90AF9098
:201460009F908F907F906F905F904F903F902F900895CF93DF93EC011C8660E082E00E9470
:2014800035011C8660E08DE0DF91CF910C943501FC0101900020E9F73197AF01481B590B54
:2014A000BC0184E892E00C94F601CF93DF930E94480AEC018AE591E00E94480A8C0F9D1F1A
:2014C000DF91CF9108958F929F92AF92BF92CF92DF92EF92FF920F931F93CF93DF93CDB72B
:2014E000DEB7A1970FB6F894DEBF0FBECDBF6C01990FEE08FF08F7FE41C06DE284E892E0A3
:201500000E9496028C0122273327A9012C193D094E095F0919A2CE0181967C019AE0892E1E
:20152000912CA12CB12CCA01B901A50194010E942B19605DF70162937F01211531054105C2
:20154000510589F790E080E0309719F0CF010E94480A800F911FA1960FB6F894DEBF0FBE20
:20156000CDBFDF91CF911F910F91FF90EF90DF90CF90BF90AF909F908F900895A70196012B
:2015800019A28E010F5D1F4F8AE0C82ED12CE12CF12CCA01B901A70196010E942B19605D39
:2015A000F80162938F01211531054105510589F790E080E0309779F2CF010E94480ACBCFC5
:2015C0006F927F928F929F92AF92BF92CF92DF92EF92FF920F931F93CF93DF93EC01CE84CA
:2015E000DF845601A60EB71E688979897B01E40EF51EC20ED31E2C853D85A216B3066CF42F
:201600008A859B85E816F90644F4C216D3062CF4060F171F0817190784F18DE591E00E9411
:20162000550AC5010E94630A85E891E00E94480AC7010E94630A85E891E00E94480AC60134
:201640000E94630A85E891E00E94480AC7010E94630A8AE591E00E94480A80E0DF91CF91CE
:201660001F910F91FF90EF90DF90CF90BF90AF909F908F907F906F900895B7FC06C0F7FC4B
:2016800004C0D7FC02C017FF03C089E891E0C7CF8C819D818A9D40018B9D900C9A9D900C76
:2016A00011246E807F808C9D50018D9DB00C9C9DB00C11246E0182E1C80ED11CC6010E9480
:2016C000390A8BEC881688E098067CF46E9CA0016F9C500D7E9C500D11244B3C88E058072F
:2016E00024F4B401C6010E949609FF24F394FE8E61E082E00E943501FE8E61E08DE00E9488
:2017000035018BECA81688E0B8067CF4609EA001619E500D709E500D11244B3C88E05807DF
:2017200024F4B501C6010E949609C6010E94390A81E094CF4F925F926F927F928F929F922D
:20174000AF92BF92CF92DF92EF92FF920F931F93CF93DF937C01DD24D394CC24CA9485EE45
:20176000982E95EC892EF701C0810E949F012B013C0180915302811162C0D0925302D09254
:201780005502C092520210927702D0927602D092780280917802CC0FC82BC0937802809144
:2017A0005402813009F0A3C0109254020E949F012B013C01809178028093BB0080910602B1
:2017C00090910702A0910802B0910902892B8A2B8B2BA1F00E949F012091060230910702E3
:2017E00040910802509109026419750986099709261737074807590708F442C08091BC0003
:2018000083FDD8CF8092BC000E949F012B013C0180915302813009F46DC080917702C2E0BB
:20182000823010F4C0917702A6E5B2E0E1EEF1E080E08C1751F19D9191938F5FFACF80910C
:20184000060290910702A0910802B0910902892B8A2B8B2B09F48DCF0E949F01209106025C
:201860003091070240910802509109026419750986099709261737074807590708F079CF43
:20188000809105020E944803C0E010920202C0930102D0E0209709F466CF81E293E00E9496
:2018A0007B035C0180910202C81BD1091C161D0644F481E293E00E947B03182F00E0A00E23
:2018C000B11EA114B10409F44ECFC501DF91CF911F910F91FF90EF90DF90CF90BF90AF9065
:2018E0009F908F907F906F905F904F9008959092BC008ACF8091060290910702A09108026C
:20190000B0910902892B8A2B8B2B09F481CF0E949F0120910602309107024091080250918E
:2019200009026419750986099709261737074807590708F06DCFA4CF2F923F924F925F923D
:201940006F927F928F929F92AF92BF92CF92DF92EF92FF920F931F93CF93DF932701160146
:20196000FC01A281B3811E96AD90BC901F977501E60EF71EF7FC42C11C96ED91FC911D973A
:20198000EE16FF060CF03AC150966D917C9151976B01C40ED51ED7FC31C11A964D915C91FD
:2019A000C416D5060CF02AC1A20EB31EB7FC26C1AE16BF060CF022C1060F171F17FD1EC1CA
:2019C000041715070CF01AC1EC010E946709CE010E94670950E040E0EA81FB8184849584C1
:2019E000688079808281938148175907BCF580819181DA01AA0FBB1FA80FB91F0D90BC9185
:201A0000A02D2D913C91119786859785280F391F37FD21C028153905F4F412966D917C91E5
:201A2000139780899189860F971F97FD14C062857385861797077CF4289DF001299DF00D23
:201A4000389DF00D1124860D971DE80FF91F18968C91805B80834F5F5F4FBECFA89CF00162
:201A6000A99CF00DB89CF00D1124E00FF11FE60DF71D80818111C2C081E08083EA81FB8138
:201A800024853585E29EC001E39E900DF29E900D1124E881F981EC0DFD1DE80FF91F8FEF9F
:201AA000808301E010E050E040E0912CEA81FB8184859585481759070CF091C09110B4C01A
:201AC00070E060E088248394800EEA81FB818485958522853385621773070CF07BC09110F1
:201AE00079C0489F9001499F300D589F300D112488819981860F971F820F931FFC018081F8
:201B00008017110609F060C030E020E0D901A170BB27F0E0E0E020FD0FC0C9010197E1E082
:201B2000F0E01816190614F0F0E0E0E0892F881F8827881FE81BF1095B01AE0EBF1E90E0DD
:201B400080E0AB2B91F0F901329781E090E01E161F0614F090E080E0EF2FEE1FEE27EE1FC0
:201B60008E1B9109919581959109B7FC27C0AA81BB811A96ED91FC911B97AE16BF06F4F46D
:201B8000840F951F97FD1AC01C960D90BC91A02D8A179B079CF48A9FF0018B9FF00D9A9FDA
:201BA000F00D1124EA0DFB1D88819981E80FF91F80818F3F61F0811101C080822F5F3F4F21
:201BC0002430310509F0A2CF6F5F7F4F7ECF99249394FACF4F5F5F4F5801850167CF0F34C7
:201BE000110561F05801FFEFAF1ABF0A911023C050E040E0F2CF6C017A017FC080E0DF9119
:201C0000CF911F910F91FF90EF90DF90CF90BF90AF909F908F907F906F905F904F903F90B1
:201C20002F90089581E0EBCF0F34110539F35801FFEFAF1ABF0AC801880F991F880F991F68
:201C40000E94E51CF20180839183F101118300831C0138016A187B0855245A9406151705D5
:201C600009F3AA81BB81A880B98030E020E020FF6CC0C901029741E050E01816190614F040
:201C800050E040E0892F881F8827881F481B510966277727641B750B90E080E08C0D9D1D35
:201CA00097FD25C01A964D915C911B9784179507F4F4A701460F571F57FD19C01C966D910F
:201CC0007C911D974617570794F4469F4001479F900C569F900C1124B501680F791F680D58
:201CE000791DFB0160816017110609F484CF2F5F3F4F2430310509F0BACF1E968D919C916C
:201D00001F979701281B390BF1013183208350968D919C9151979601281B390B3383228313
:201D20001C968D919C91E89ED001E99EB00DF89EB00D1124AC0CBD1CAA0DBB1D5C92015024
:201D4000110934E0230E311C89CFA9014150510981E090E01416150614F090E080E0452F8C
:201D6000441F4427441F841B910970E060E096CF85ED8093BC008091060290910702A0914F
:201D80000802B09109020796A11DB11D23E0B695A795979587952A95D1F72091BC0024FDDD
:201DA00003C010925302089540910602509107026091080270910902452B462B472B69F353
:201DC0000097A105B10541F025E32A95F1F700000197A109B109E1CF809105020C94480381
:201DE0004F925F926F927F928F929F92AF92BF92CF92DF92EF92FF92CF93DF93EC016A010B
:201E00007B0120E030E0A901CB01B6010E94F31987FF04C0F7FAF094F7F8F09488A099A0C8
:201E2000AAA0BBA0A7019601C501B4010E94F319882309F44DC06CA97DA98EA99FA90E9484
:201E4000A71A2B013C01A7019601C501B4010E94FD199B01AC01C301B2010E949B1B0E942C
:201E60006F1A6CAB7DAB8EAB9FABA701960160E070E080E090E40E94FD190E943A1C26E5B9
:201E80003EE04DE25FE30E949B1B20E034E244E759E40E949B1B68AF79AF8AAF9BAFC8A259
:201EA000D9A2EAA2FBA2E881F9810084F185E02DCE01DF91CF91FF90EF90DF90CF90BF90CA
:201EC000AF909F908F907F906F905F904F900994DF91CF91FF90EF90DF90CF90BF90AF90C2
:201EE0009F908F907F906F905F904F900895CF92DF92EF92FF920F931F93CF93DF93EC0122
:201F00008AE191E09983888381E08F83188A198A1A8A1B8A1C8A1D8A1E8A1F8A188E198ED2
:201F20001A8E1B8E1C8E1D8E1E8E1F8E18A219A21AA21BA2C12CD12C80E8E82E8FE3F82EB4
:201F4000CCA2DDA2EEA2FFA21B821C821D821E8281E090E09DA78CA78FEF8FA718A619A670
:201F60001AA61BA66887498784E08A8785E08B871EA61CAA1DAA1EAA1FAA18AE19AE1AAEFE
:201F80001BAE1CAE1DAE1EAE1FAE8E01005C1F4FF801C082D182E282F3821A821C861D86A9
:201FA0001E861F86CE010E942604B701A601CE010E94F00EA70196016C8D7D8D8E8D9F8DE6
:201FC0000E94F319882309F1CC8EDD8EEE8EFF8E80E094E2A4E7B9E4F80180839183A283AD
:201FE000B3838CA99DA9AEA9BFA9181619061A061B065CF4CE01DF91CF911F910F91FF9015
:20200000EF90DF90CF900C94F403DF91CF911F910F91FF90EF90DF90CF9008950F931F93EF
:20202000CF93DF93EC01198218821B821A821C8684E490E00E94E51C8C0146E065E00E94BA
:20204000770F1983088384E490E00E94E51C8C0149E068E00E94770F1B830A8320E030E0F7
:202060004AE754E4F801648D758D868D978D0E94F3198823E1F080E090E0AAE7B4E4F801B8
:20208000848F958FA68FB78FE05CFF4F80839183A283B383F80184A995A9A6A9B7A9181651
:2020A00019061A061B061CF4C8010E94F40340E050E06AE774E48A819B810E9439060881C4
:2020C000198120E030E04AE754E4F801648D758D868D978D0E94F3198823E1F080E090E0D0
:2020E000AAE7B4E4F801848F958FA68FB78FE05CFF4F80839183A283B383F80184A995A9AC
:20210000A6A9B7A9181619061A061B061CF4C8010E94F40340E050E06AE774E488819981F4
:202120000E94F00E40E050E06AE774E4888199810E94390661E082E00E946301CE01DF911A
:20214000CF911F910F910C94390A0C94811D2F923F924F925F926F927F928F929F92AF92A5
:20216000BF92CF92DF92EF92FF920F931F93CF93DF93CDB7DEB762970FB6F894DEBF0FBE35
:20218000CDBFDB011A960D90BC91A02DB88BAF87FD01E40FF51FDB011C962D913C91D901FF
:2021A000D896AE17BF070CF4F7C1295C3F4FE217F30709F4F1C15E874D875B012C01312C1A
:2021C000212CED85FE85E215F3050CF4A3C10F851889020D131DD5011C968D919C919C0186
:2021E0002E5C3F4F201731070CF45FC0C8010E94D0003C01B801110F880B990B0E94A71A4E
:20220000F201278D30A141A152A10E9487190E946F1ACB010E94D0009A87898718861F8256
:20222000D50112964D915C9113976D917C91FE0135966F019E01295F3F4F790109851A850A
:202240009301D20118968D919C910E949C0C81112EC1ED85FE852E163F0609F057C1D201F1
:2022600012964D915C9190E080E0912C812C841795070CF08FC0D201ED91FC919C01220F83
:20228000331FE20FF31F0190F081E02D208131816216730641F42281338169857A856217A4
:2022A000730709F44F010196E2CF02970E94D0003C01D5011C96ED90FC901D9718968D91B6
:2022C0009C916AE070E00E941719072E000C880B990B0E94A71A2BED3FE049EC5FE30E943A
:2022E0009B1B0E942C1C0E94081C97012E5C3F4F4801821A930A0E946F1A869E9001879E41
:20230000300D969E300D1124621A730AB70162507109072E000C880B990B0E94A71AF2012F
:20232000278D30A141A152A10E9487190E946F1ACB010E94D0007C01D50118968D919C914C
:202340006AE070E00E941719072E000C880B990B0E94A71A2BED3FE049EC5FE30E949B1B30
:202360000E94F8190E94081CF501248535852E5C3F4F021B130B0E946F1A069F9001079F31
:20238000300D169F300D1124B701621B730B7A87698744CF8114910409F474C0D201189646
:2023A0008D919C911C821B82F40106811781248135814281538160817181DE0111966D01CA
:2023C000FE0133967F010E949C0C811111C0D40112964D915C9113976D917C9110E000E03B
:2023E00030E020E0D20118968D919C910E949C0C82E0E82EF12CD12CC12C8B819C81298165
:202400003A81C216D3067CF58E0D9F1DFC010190F081E02DFC87EB870297DC010D90BC9127
:20242000A02DBA8BA98BF40142815381608171810B851C859D01C2010E94E00A882361F0DD
:20244000E989FA89D4011196FC93EE932B853C8513963C932E9312973FEFC31AD30A64E07C
:20246000E60EF11CCACF009711F00E94811DD4011C968D919C911D971B969C938E931A97B2
:2024800052961C92F50142815381608171819E012B5F3F4F6901CE0107967C0109851A850F
:2024A0009301D20118968D919C910E949C0CF12CE12CD12CC12C8F8198852D813E81C216EC
:2024C000D30604F5FC01EE0DFF1D6080718082809380F501428153816081718184019301B7
:2024E000C2010E94E00AD50111967C926E9213969C928E921297BFEFCB1ADB0AE4E0EE0E2A
:20250000F11CD9CF009711F00E94811DBFEF2B1A3B0A57CED5011A964D915C911B97ED855C
:20252000FE854E0F5F1F1B965C934E931A9753968C915397811130C01C968D919C911D97E8
:20254000C8964817590741F581E053968C9368EE73E080E090E00E94C401D5011696CD9000
:20256000DC9017971496ED90FC90B1E0EB1AF108F501428153816081718186019701C201BD
:202580000E94E00A882341F0D5011196FC92EE921396DC92CE92129762960FB6F894DEBF42
:2025A0000FBECDBFDF91CF911F910F91FF90EF90DF90CF90BF90AF909F908F907F906F90DC
:2025C0005F904F903F902F9008951F920F920FB60F9211242F933F938F939F93AF93BF9399
:2025E00080917C0290917D02A0917E02B0917F0230917B0223E0230F2D3758F50196A11DC0
:20260000B11D20937B0280937C0290937D02A0937E02B0937F028091800290918102A091AA
:202620008202B09183020196A11DB11D8093800290938102A0938202B0938302BF91AF91E3
:202640009F918F913F912F910F900FBE0F901F90189526E8230F0296A11DB11DD2CF1F927D
:202660000F920FB60F9211242F933F934F935F936F937F938F939F93AF93BF93EF93FF93A6
:2026800084E892E00E947402FF91EF91BF91AF919F918F917F916F915F914F913F912F91E4
:2026A0000F900FBE0F901F9018951F920F920FB60F9211242F938F939F93EF93FF93E0912B
:2026C0009402F09195028081E0919A02F0919B0282FD1BC0908180919D028F5F8F73209164
:2026E0009E02821741F0E0919D02F0E0EC57FD4F958F80939D02FF91EF919F918F912F910B
:202700000F900FBE0F901F9018958081F4CF1F920F920FB60F9211242F933F934F935F9339
:202720006F937F938F939F93AF93BF93EF93FF938091B900887F803609F44AC0F0F588325C
:2027400009F4A7C018F5803109F49BC0B8F4882309F4F9C0883009F494C0FF91EF91BF9189
:20276000AF919F918F917F916F915F914F913F912F910F900FBE0F901F901895883109F43C
:2027800088C0803251F78093520214C0803409F49DC040F48033B9F38833F9F6809352020A
:2027A00085ECB0C0803509F485C0883509F496C0883499F60E94B80ED0CF883909F48CC0D5
:2027C00038F5883729F050F4883611F0803729F683E0809353021092510257C0883809F487
:2027E0007BC0803919F0803809F0B7CF80915102803208F071C0E091510281E08E0F809391
:2028000051028091BB00F0E0EF5CFD4F80833DC0803B39F0E0F4803A09F479C0883A09F0CF
:202820009CCF84E08093530210922E0210922D02E0912B02F0912C02099580912D02811101
:202840000FC081E080932D0210920B0209C0803C09F4A6CF883C09F4A3CF883B09F07DCF25
:20286000E0912E0281E08E0F80932E02F0E0E55FFD4F80818093BB0090912E0280912D02B6
:2028800029C0809178028093BB0085EC8093BC0064CF9091770280917602981758F5E091F3
:2028A000770281E08E0F80937702F0E0EA5AFD4F8081E9CFE091770281E08E0F8093770288
:2028C0008091BB00F0E0EA5AFD4F808390917702809176029817C8F285E8D8CFE09177023F
:2028E00081E08E0F809377028091BB00F0E0EA5AFD4F80838091550281115CCF81E0809386
:20290000540284EA8093BC001092530226CF85EC8093BC001092530280915102803230F4C7
:20292000E0915102F0E0EF5CFD4F10826091510270E0E0912F02F091300281E392E009957D
:20294000109251020ACF1092520234CFE4E8F2E01382128288EE93E0A0E0B0E084839583D1
:20296000A683B7832AE331E03183208325EC30E03587248724EC30E03787268720EC30E050
:20298000318B208B21EC30E0338B228B22EC30E0358B248B26EC30E0378B268B118E128EE7
:2029A000138E148EE1E2F3E01382128284839583A683B7838CE491E0918380830895CF939C
:2029C000DF93CDB7DEB7E1970FB6F894DEBF0FBECDBF789484B5826084BD84B5816084BDEA
:2029E00085B5826085BD85B5816085BD80916E00816080936E0010928100809181008260A4
:202A00008093810080918100816080938100809180008160809380008091B100846080935D
:202A2000B1008091B00081608093B00080917A00846080937A0080917A00826080937A008A
:202A400080917A00816080937A0080917A00806880937A001092C100E0919402F0919502FB
:202A600082E08083E0919002F09191021082E0919202F09193028FEC808310929C02E091FE
:202A80009802F091990286E08083E0919602F0919702808180618083E0919602F0919702EC
:202AA000808188608083E0919602F0919702808180688083E0919602F091970280818F7DEB
:202AC000808362E084E00E94630160E087E00E94630160E08AE00E9463018CEA91E00E9461
:202AE000550A86E190E00E94E51C2C01DC0113961C921E9212974C01BCE08B0E911C68E0CC
:202B000070E0C4010E9446095201EEE0AE0EB11C6BE070E0C5010E9446096201F0E1CF0EA2
:202B2000D11C6AE070E0C6010E944609320122E1620E711C69E070E0C3010E94460983E270
:202B400090E00E94E51C8C018FE090E0D8011B969C938E931A971D969C938E931C9787E04E
:202B600090E01F969C938E931E9751969C938E9350977801B2E1EB0EF11CC7010E940E1073
:202B8000CE0101960E940E108DE0FE013196D70101900D928A95E1F7F801138E128E158E00
:202BA000148E64E670E080E090E00E94C40149E650E06CE370E0C7010E949609D8015B96D1
:202BC0001C921E925A975D961C921E925C9740E050E06AE774E452968D919C910E94390655
:202BE00040E050E06AE774ECF801848995890E9439068AE00E940C01892B61F0D8015296F0
:202C00008D919C910E940708F801848995890E940708EFCF40E050E06AE774E4D801549669
:202C20008D919C910E94390687E00E940C01F801892B59F0828993890E940708D8015496C1
:202C40008D919C910E940708EFCF138E128E158E148E64E670E080E090E00E94C40149E634
:202C600050E06CE370E0C7010E949609D8015B961C921E925A975D961C921E925C9768EEC9
:202C800073E080E090E00E94C40180EA90E0F801958384839783868384E090E00E94E51C1E
:202CA0007C01DC0113961C930E931297F8012485358582859385AC01249FC001259F900D0B
:202CC000349F900D11240E94E51CD7018D939C93C7010E946709F801F186E08680E090E005
:202CE000A0E5B1E4878F90A3A1A3B2A3D20155961C930E93549761E070E0C4010E945A0885
:202D000061E070E0C5010E945A0861E070E0C6010E945A0861E070E0C3010E945A0884E03F
:202D200090E0F201918380830489158980E290E00E94E51CD8018C9311969C93119720E102
:202D400030E013963C932E9312978A8F9B8FF2013496FDA3ECA3198E188E1BA21AA224E385
:202D600030E03D8F2C8F8CE090E00E94E51C1C01E88DF98DDC011996FC93EE93189788E072
:202D8000E6E0F1E0DE011E9601900D928A95E1F788E0EEE0F1E0DE01119601900D928A9506
:202DA000E1F7288D398DB901330F880B990B0E94A71A2BED3FE049EC5FEB0E949B1B4B01D0
:202DC0005C010E94F8196B017C01C501B4010E942C1C3B014C014C8D5D8D425351095FA754
:202DE0004EA7CE010E969FA38EA339A228A2DE011196B9A7A8A73BA62AA61F8E1E8EEEA185
:202E0000FFA121913191FFA3EEA33DA72CA720E030E0A901C701B6010E94961B20E030E018
:202E200040E05FE387FD23C1C701B6010E9487190E946F1A79AB68AB4CA55DA5469F50017C
:202E4000479FB00C569FB00C1124A8A5B9A50D911D91B9A7A8A720E030E0A901C401B30111
:202E60000E94961B20E030E040E05FE387FD04C1C401B3010E9487190E946F1A069F900128
:202E8000079F300D169F300D1124A21AB30AECA5FDA5E69F9001E79F300DF69F300D11249C
:202EA00048A959A9409FC001419F900D509F900D11248901080F191F84E190E00E94E51CF0
:202EC000FC01B182A08213830283B582A482178306838E8D9F8DAAA1BBA18A0F9B1F9187AC
:202EE0008087128A138AAAA5BBA5ED93FD93BBA7AAA72EA53FA533872287358724874E8DC4
:202F00005F8D4F5F5F4F5F8F4E8F4430510509F076CFEC8DFD8DD1011B96FC93EE931A974F
:202F2000ACA1BDA12D923D92BDA3ACA3B8E02B0E311CEA8DFB8DA8A1B9A18D919D91B9A341
:202F4000A8A381939193A215B305A9F7E88DF98D3196F98FE88F2A8D3B8D285F3F4F3B8FC0
:202F60002A8F4C8D5D8D435F5F4F5D8F4C8F8AA19BA10A969BA38AA3349709F0F4CE5092E4
:202F80007A02409279029924939460E0A62E60E0B62E0091790210917A02D8011296ED9025
:202FA000FC90B6E0EB0EF11CEE0CFF1CE00EF11E64E070E0C7010E945A08C7010E949A0B68
:202FC0009E8B990F990B9F8BEE89FF89EF2BA9F368EE73E080E090E00E94C40161E070E02C
:202FE000C7010E945A088E899F890E94630A8AEB91E00E94480A2E893F892630310509F4D5
:203000004FC0D80112968D919C91FC013296EE0FFF1FE00FF11F0190F081E02DAF01485F90
:203020005F4F20E0A191B19152963C915297332329F053966C91611101C0232F4E175F072B
:2030400089F721112DC00196F801608171810E94171993838283A114B10409F49ACF0E940F
:203060006002882309F495CF0E94000092CFC701B6010E948619DCCEC401B3010E948619BB
:20308000FBCE83E090E02EC084E090E02BC00696880F991F60E170E0800F911F0E945A0828
:2030A00068EE73E080E090E00E94C401D8011296CD90DC90B6E0CB0ED11CCC0CDD1CC00EEB
:2030C000D11E68E070E0C6010E945A08C6010E949A0B992784309105A1F288309105A1F212
:2030E0000097A1F37C01E1E0EE1AF10864E670E080E090E00E94C40161E070E0C6010E949B
:203100005A08D80112968D919C911397FC013296EE0FFF1FE00FF11F0190F081E02DEE0CEF
:20312000FF1CEE0DFF1D60817181FB01828881102AC02E893F892630310509F0A8CF50E05E
:2031400040E054968D919C910E94A710D8011296ED91FC913296EE0FFF1FE00FF11F808152
:203160009181E80EF91ED701ED91FC91928AD80112968D919C91139701966D917C910E9477
:203180001719F80166CFD12CC12CF80182819381FC013296EE0FFF1FE00FF11F20813181A5
:2031A000F601EE0FFF1FE20FF31F608171812E0D3F1DF901A081B1811A962D913C914E8931
:2031C0005F89240F351FDB011A964D915C914217530751F40696880F991F60E170E0800F26
:2031E000911F0E945A08812CBFEFCB1ADB0AE4E0CE16D10451F6D8011296ED91FC911397FC
:203200003296EE0FFF1FE00FF11F80819181E80EF91EF701608171814E895F8954968D911A
:203220009C910E94A710882009F43ACFA0CF97FB072E16F4009407D077FD09D00E94721935
:2032400007FC05D03EF4909581959F4F0895709561957F4F0895A1E21A2EAA1BBB1BFD01D4
:203260000DC0AA1FBB1FEE1FFF1FA217B307E407F50720F0A21BB30BE40BF50B661F771FC4
:20328000881F991F1A9469F760957095809590959B01AC01BD01CF010895052E97FB1EF442
:2032A00000940E94641957FD07D00E942B1907FC03D04EF40C9464195095409530952195E0
:2032C0003F4F4F4F5F4F089590958095709561957F4F8F4F9F4F0895EE0FFF1F0590F491D6
:2032E000E02D0994AA1BBB1B51E107C0AA1FBB1FA617B70710F0A61BB70B881F991F5A95A1
:20330000A9F780959095BC01CD0108955058BB27AA270E949E190C94481B0E940F1B38F000
:203320000E94161B20F039F49F3F19F426F40C940C1B0EF4E095E7FB0C94061BE92F0E94DD
:203340006D1B58F3BA17620773078407950720F079F4A6F50C948F1B0EF4E0950B2EBA2FC4
:20336000A02D0B01B90190010C01CA01A0011124FF27591B99F0593F50F4503E68F11A1665
:20338000F040A22F232F342F4427585FF3CF469537952795A795F0405395C9F77EF41F1675
:2033A000BA0B620B730B840BBAF09150A1F0FF0FBB1F661F771F881FC2F70EC0BA0F621F37
:2033C000731F841F48F4879577956795B795F7959E3F08F0B0CF9395880F08F09927EE0FB8
:2033E0009795879508950E94E21A08F481E008950E941F1BE3950C94591B0E94111A0C947B
:20340000481B0E94161B58F00E940F1B40F029F45F3F29F00C94061B51110C94901B0C9450
:203420000C1B0E946D1B68F39923B1F3552391F3951B550BBB27AA2762177307840738F01B
:203440009F5F5F4F220F331F441FAA1FA9F335D00E2E3AF0E0E832D091505040E695001C38
:20346000CAF72BD0FE2F29D0660F771F881FBB1F261737074807AB07B0E809F0BB0B802D5E
:20348000BF01FF2793585F4F3AF09E3F510578F00C94061B0C94901B5F3FE4F3983ED4F3CA
:2034A000869577956795B795F7959F5FC9F7880F911D9695879597F90895E1E0660F771FCE
:2034C000881FBB1F621773078407BA0720F0621B730B840BBA0BEE1F88F7E09508950E948D
:2034E000761A6894B1110C94901B08950E94751B88F09F5798F0B92F9927B751B0F0E1F04D
:20350000660F771F881F991F1AF0BA95C9F714C0B13091F00E948F1BB1E008950C948F1B2E
:20352000672F782F8827B85F39F0B93FCCF3869577956795B395D9F73EF4909580957095FC
:2035400061957F4F8F4F9F4F0895E89409C097FB3EF490958095709561957F4F8F4F9F4F66
:203560009923A9F0F92F96E9BB279395F695879577956795B795F111F8CFFAF4BB0F11F4C4
:2035800060FF1BC06F5F7F4F8F4F9F4F16C0882311F096E911C0772321F09EE8872F762F2B
:2035A00005C0662371F096E8862F70E060E02AF09A95660F771F881FDAF7880F96958795EF
:2035C00097F90895990F0008550FAA0BE0E8FEEF16161706E807F907C0F012161306E4072C
:2035E000F50798F0621B730B840B950B39F40A2661F0232B242B252B21F408950A2609F4A3
:20360000A140A6958FEF811D811D089597F99F6780E870E060E008959FEF80EC0895002451
:203620000A941616170618060906089500240A94121613061406050608950C940C1B0E94AB
:20364000751BD8F3E894E0E0BB279F57F0F02AED3FE049EC06C0EE0FBB0F661F771F881F61
:2036600028F0B23A62077307840728F0B25A620B730B840BE3959A9572F7803830F49A951F
:20368000BB0F661F771F881FD2F790480C94971C092E0394000C11F4882352F0BB0F40F4E0
:2036A000BF2B11F460FF04C06F5F7F4F8F4F9F4F0895EF93E0FF07C0A2EA2AED3FE049ECD4
:2036C0005FEB0E949E190E94481B0F90039401FC9058E8E6F0E00C94AA1C57FD9058440F94
:2036E000551F59F05F3F71F04795880F97FB991F61F09F3F79F087950895121613061406A5
:20370000551FF2CF4695F1DF08C0161617061806991FF1CF86957105610508940895E89476
:20372000BB2766277727CB0197F908950E94E21A08F48FEF08950E94AE1B0C94481B0E94BE
:203740000F1B38F00E94161B20F0952311F00C94061B0C940C1B11240C94901B0E946D1B49
:2037600070F3959FC1F3950F50E0551F629FF001729FBB27F00DB11D639FAA27F00DB11D68
:20378000AA1F649F6627B00DA11D661F829F2227B00DA11D621F739FB00DA11D621F839F3A
:2037A000A00D611D221F749F3327A00D611D231F849F600D211D822F762F6A2F11249F57DB
:2037C00050409AF0F1F088234AF0EE0FFF1FBB1F661F771F881F91505040A9F79E3F51050E
:2037E00080F00C94061B0C94901B5F3FE4F3983ED4F3869577956795B795F795E7959F5FC6
:20380000C1F7FE2B880F911D9695879597F908950E94751BE8F09E37E8F09639B8F49E3806
:2038200048F4672F782F8827985FF9CF86957795679593959539D0F3B62FB1706B0F711DB7
:20384000811D20F487957795679593950C947A1C0C94951C0C94901B9F930E941F1B0F90EB
:2038600007FCEE5F0C94591B19F416F40C940C1B0C94951C0E94751BB8F39923C9F3B6F3B7
:203880009F57550B87FF0E94A31C0024A0E640EA900180585695979528F4805C660F771F94
:2038A000881F20F026173707480730F4621B730B840B202931294A2BA695179407942025FB
:2038C00031254A2758F7660F771F881F20F026173707480730F4620B730B840B200D311D2D
:2038E000411DA09581F7B901842F9158880F969587950895882371F4772321F09850872B97
:20390000762F07C0662311F499270DC09051862B70E060E02AF09A95660F771F881FDAF732
:20392000880F9695879597F908959F3F31F0915020F4879577956795B795880F911D9695A8
:20394000879597F9089591505040660F771F881FD2F708959F938F937F936F93FF93EF9319
:203960009B01AC010E949B1BEF91FF910E94BE1C2F913F914F915F910C949B1BDF93CF9390
:203980001F930F93FF92EF92DF927B018C01689406C0DA2EEF010E94AE1BFE01E894A59171
:2039A0002591359145915591A6F3EF010E949E19FE019701A801DA9469F7DF90EF90FF9062
:2039C0000F911F91CF91DF9108950F931F93CF93DF938230910510F482E090E0E0912F0341
:2039E000F091300330E020E0B0E0A0E0309799F42115310509F44AC0281B390B243031051B
:203A0000D8F58A819B816115710589F1FB0193838283FE0111C0408151810281138148175C
:203A20005907E0F04817590799F4109761F012960C93129713961C933296CF01DF91CF9162
:203A40001F910F91089500932F0310933003F4CF2115310551F04217530738F0A901DB010D
:203A60009A01BD01DF01F801C1CFEF01F9CF9093300380932F03CDCFFE01E20FF31F81937F
:203A800091932250310939832883D7CF20912D0330912E03232B41F420910201309103017A
:203AA00030932E0320932D0320910001309101012115310541F42DB73EB740910401509189
:203AC0000501241B350BE0912D03F0912E03E217F307A0F42E1B3F0B2817390778F0AC0160
:203AE0004E5F5F4F2417350748F04E0F5F1F50932E0340932D03819391939FCFF0E0E0E094
:203B00009CCFCF93DF930097E9F0FC01329713821282A0912F03B0913003ED0130E020E032
:203B20001097A1F420813181820F931F20912D0330912E032817390709F061C0F0932E0393
:203B4000E0932D03DF91CF910895EA01CE17DF07E8F54A815B819E0141155105B1F7E9013E
:203B6000FB83EA8349915991C40FD51FEC17FD0761F4808191810296840F951FE90199837B
:203B80008883828193819B838A83F0E0E0E012968D919C9113970097B9F52D913C91119733
:203BA000CD010296820F931F20912D0330912E032817390739F6309751F510923003109257
:203BC0002F03B0932E03A0932D03BCCFD383C28340815181840F951FC817D90761F44E5F1B
:203BE0005F4F88819981480F591F518340838A819B81938382832115310509F0B0CFF093E5
:203C00003003E0932F039ECFFD01DC01C0CF13821282D7CFF894FFCF000031038000060012
:203C20000600040004000600040004000600000000005A0426045908A510AE06BB05F90552
:203C4000A505730552051E05FD04A7047804000000009602F6012302E30254023202460235
:203C600000000000C2039503F1036B038E037B036C030D0A004F6F7073696520776F6F7399
:203C800070696520696B206D61672064616172206E696574206E616172746F6500207C204F
:203CA000004F6F7073696520776F6F7370696520646174206973207465206E656761746989
:203CC00065662000626F6172642073746172746564002C200000FFFFFFFFFFFFFFFFFFFF98
:203CE000FFFFFFFFFFFFFFFFFFFFFFFFFFFFFFFFFFFFFFFFFFFFFFFFFFFFFFFFFFFFFFFFE4
:203D000073696520776F6F7370696520646174206973207465206E6567617469656620006B
:203D2000466C6F6F646661696C6564007C000900626F6172642073746172746564002C203A
:203D40000000FFFFFFFFFFFFFFFFFFFFFFFFFFFFFFFFFFFFFFFFFFFFFFFFFFFFFFFFFFFF81
:203D6000FFFFFFFFFFFFFFFFFFFFFFFFFFFFFFFFFFFFFFFFFFFFFFFFFFFFFFFFFFFFFFFF63
:203D8000E894A5912591359145915591A6F3EF010E94901BFE019701A801DA9469F7DF90E6
:203DA000EF90FF900F911F91CF91DF910895F894FFCF0000E903800006000600040004005E
:203DC0000600040004000600000000005A0426045908FC10AE06BB05F905A50573055205EF
:203DE0001E05FD04A7047804000000009602F6012302E30254023202460200000000C20348
:203E00009503F1036B038E037B036C030D0A004F6F7073696520776F6F7370696520696B8A
:203E2000206D61672064616172206E696574206E616172746F6500207C20004F6F707369D5
:203E40006520776F6F7370696520646174206973207465206E656761746965662000466C54
:203E60006F6F646661696C6564007C0009004D656D203A006F6E2066696E697368206C6132
:203E80006E6521004D6F76696E6720746F005061776E20636170747572696E673A200009D5
:203EA0002000626F61726420737461727465640047616D65426F61726420696E6974006E1F
:203EC000657720706C61796572007061776E206D6F76656420746F20626F6172640070616C
:203EE000776E206E6F7420616C6C6F77656420746F206D6F7665007061776E206973206F49
:203F00006E20626F617264007061776E20636170747572696E672073656C66007061776EE8
:203F2000206D6F7665640000FFFFFFFFFFFFFFFFFFFFFFFFFFFFFFFFFFFFFFFFFFFFFFFF5E
:203F4000FFFFFFFFFFFFFFFFFFFFFFFFFFFFFFFFFFFFFFFFFFFFFFFFFFFFFFFFFFFFFFFF81
:203F6000FFFFFFFFFFFFFFFFFFFFFFFFFFFFFFFFFFFFFFFFFFFFFFFFFFFFFFFFFFFFFFFF61
:203F800000009602F6012302E30254023202460200000000C2039503F1036B038E037B03E8
:203FA0006C030D0A004F6F7073696520776F6F7370696520696B206D6167206461617220C5
:203FC0006E696574206E616172746F6500207C20004F6F7073696520776F6F7370696520B6
:203FE000646174206973207465206E656761746965662000466C6F6F646661696C656400B7
:204000007C0009004D656D006F6E2066696E697368206C616E6521004D6F76696E67207499
:204020006F00626F61726420737461727465640047616D65426F61726420696E6974006E4E
:20404000657720706C61796572007061776E206D6F76656420746F20626F617264007061EA
:20406000776E206E6F7420616C6C6F77656420746F206D6F7665007061776E206973206FC7
:204080006E20626F617264007061776E20636170747572696E672073656C66007061776E67
:2040A000206D6F7665640000FFFFFFFFFFFFFFFFFFFFFFFFFFFFFFFFFFFFFFFFFFFFFFFFDD
:2040C000FFFFFFFFFFFFFFFFFFFFFFFFFFFFFFFFFFFFFFFFFFFFFFFFFFFFFFFFFFFFFFFF00
:2040E000FFFFFFFFFFFFFFFFFFFFFFFFFFFFFFFFFFFFFFFFFFFFFFFFFFFFFFFFFFFFFFFFE0
:20410000616D6F756E743A20007061776E20746F2063617074757265206973206E756C6C0D
:20412000706E7472006E6F207061746820746F20686F6D656261736520666F756E64006D01
:204140006F7076696E67207061776E20746F206361707475726520746F3A2000626F6172DE
:204160006420737461727465640047616D65426F61726420696E6974006E657720706C61E7
:20418000796572007061776E206D6F76656420746F20626F617264007061776E206E6F748C
:2041A00020616C6C6F77656420746F206D6F7665007061776E206973206F6E20626F6172AA
:2041C00064007061776E20636170747572696E672073656C66007061776E206D6F7665641D
:2041E0000000FFFFFFFFFFFFFFFFFFFFFFFFFFFFFFFFFFFFFFFFFFFFFFFFFFFFFFFFFFFFDD
:20420000656C66007061776E206D6F7665640000FFFFFFFFFFFFFFFFFFFFFFFFFFFFFFFF86
:20422000FFFFFFFFFFFFFFFFFFFFFFFFFFFFFFFFFFFFFFFFFFFFFFFFFFFFFFFFFFFFFFFF9E
:20424000FFFFFFFFFFFFFFFFFFFFFFFFFFFFFFFFFFFFFFFFFFFFFFFFFFFFFFFFFFFFFFFF7E
:20426000FFFFFFFFFFFFFFFFFFFFFFFFFFFFFFFFFFFFFFFFFFFFFFFFFFFFFFFFFFFFFFFF5E
:204280003181820F931F20918303309184032817390709F061C0F0938403E0938303DF919E
:2042A000CF910895EA01CE17DF07E8F54A815B819E0141155105B1F7E901FB83EA83499125
:2042C0005991C40FD51FEC17FD0761F4808191810296840F951FE9019983888382819381B7
:2042E0009B838A83F0E0E0E012968D919C9113970097B9F52D913C911197CD010296820FF7
:20430000931F20918303309184032817390739F6309751F51092860310928503B093840392
:20432000A0938303BCCFD383C28340815181840F951FC817D90761F44E5F5F4F8881998132
:20434000480F591F518340838A819B81938382832115310509F0B0CFF0938603E0938503CA
:204360009ECFFD01DC01C0CF13821282D7CFF894FFCF00008703800006000600040004001F
:204380000600040004000600000000008B075607520C2D0FDF0A5B099B0943091209D4084C
:2043A0009D085F080008A707000000005E062E0653070306270613060406000000001503D8
:2043C000E40147025F037A0258026C020D0A006F7064617465002D00666C6F6F6466616904
:2043E0006C6564004D6F76696E6720746F004F6F7073696520776F6F7370696520696B206C
:204400006D61672064616172206E696574206E616172746F6500207C20004F6F70736965AA
:2044200020776F6F7370696520646174206973207465206E6567617469656620006E6F2088
:204440007061746820706F7369626C65006D6F76696E67746F3A0047616D65426F61726492
:2044600020696E6974006E657720706C61796572007061776D7300626F61726420737461D9
:20448000727465640000FFFFFFFFFFFFFFFFFFFFFFFFFFFFFFFFFFFFFFFFFFFFFFFFFFFF87
:2044A000FFFFFFFFFFFFFFFFFFFFFFFFFFFFFFFFFFFFFFFFFFFFFFFFFFFFFFFFFFFFFFFF1C
:2044C000FFFFFFFFFFFFFFFFFFFFFFFFFFFFFFFFFFFFFFFFFFFFFFFFFFFFFFFFFFFFFFFFFC
:2044E000FFFFFFFFFFFFFFFFFFFFFFFFFFFFFFFFFFFFFFFFFFFFFFFFFFFFFFFFFFFFFFFFDC
:20450000FFFFFFFFFFFFFFFFFFFFFFFFFFFFFFFFFFFFFFFFFFFFFFFFFFFFFFFFFFFFFFFFBB
:207E0000112484B714BE81FFF0D085E08093810082E08093C00088E18093C10086E08093FC
:207E2000C20080E18093C4008EE0C9D0259A86E020E33CEF91E0309385002093840096BBAD
:207E4000B09BFECF1D9AA8958150A9F7CC24DD2488248394B5E0AB2EA1E19A2EF3E0BF2E79
:207E6000A2D0813461F49FD0082FAFD0023811F0013811F484E001C083E08DD089C0823404
:207E800011F484E103C0853419F485E0A6D080C0853579F488D0E82EFF2485D0082F10E0A0
:207EA000102F00270E291F29000F111F8ED068016FC0863521F484E090D080E0DECF84364D
:207EC00009F040C070D06FD0082F6DD080E0C81680E7D80618F4F601B7BEE895C0E0D1E0ED
:207EE00062D089930C17E1F7F0E0CF16F0E7DF0618F0F601B7BEE89568D007B600FCFDCF1A
:207F0000A601A0E0B1E02C9130E011968C91119790E0982F8827822B932B1296FA010C016F
:207F200087BEE89511244E5F5F4FF1E0A038BF0751F7F601A7BEE89507B600FCFDCF97BE85
:207F4000E89526C08437B1F42ED02DD0F82E2BD03CD0F601EF2C8F010F5F1F4F84911BD0B8
:207F6000EA94F801C1F70894C11CD11CFA94CF0CD11C0EC0853739F428D08EE10CD085E9AE
:207F80000AD08FE07ACF813511F488E018D01DD080E101D065CF982F8091C00085FFFCCF0A
:207FA0009093C60008958091C00087FFFCCF8091C00084FD01C0A8958091C6000895E0E68F
:207FC000F0E098E1908380830895EDDF803219F088E0F5DFFFCF84E1DECF1F93182FE3DF47
:207FE0001150E9F7F2DF1F91089580E0E8DFEE27FF270994FFFFFFFFFFFFFFFFFFFF040425
:00000001FF
